:100000000C941C100C945C100C945C100C945C1000
:100010000C945C100C945C100C945C100C945C10B0
:100020000C945C100C945C100C945C100C945C10A0
:100030000C945C100C945C100C945C100C945C1090
:100040000C945C100C94D0910C945C100C945C108B
:100050000C945C100C9492890C945C100C940D8898
:100060000C945C100C9476920C946C920C945C1032
:100070000C945C100C945C100C945C100C945C1050
:100080000C943E920C945C100C945C100C945C10DC
:100090000C945C100C945C100C945C100C945C1030
:1000A0000C945C100C945C100C9410920C945C10EA
:1000B0000C945C100C945C100C945C100C945C1010
:1000C0000C945C100C945C100C945C100C945C1000
:1000D0000C945C100C945C100C945C100C945C10F0
:1000E0000C945C10084AD73B3BCE016E84BCBFFD2C
:1000F000C12F3D6C74319ABD56833DDA3D00C77FF8
:1001000011BED9E4BB4C3E916BAAAABE0000008090
:100110003F05A84CCDB2D44EB93836A9020C50B91F
:10012000918688083CA6AAAA2ABE000000803F004B
:100130004E414E494E495459494E46CDCCCC3D0ACC
:10014000D7233C17B7D13877CC2B329595E6241FAF
:10015000B14F0A000020410000C84200401C462068
:10016000BCBE4CCA1B0E5AAEC59D74434F4D4D5577
:100170004E49434154494F4E0044525952554E0046
:100180004552524F525300494E464F004543484F47
:10019000005072696E7465722073746F707065645C
:1001A0002064756520746F206572726F72732E20E3
:1001B00046697820746865206572726F7220616E7E
:1001C0006420757365204D39393920746F2072654C
:1001D00073746172742E202854656D706572617439
:1001E0007572652069732072657365742E2053657E
:1001F000742069742061667465722072657374611D
:100200007274696E67290A004E6F20436865636BDC
:1002100073756D2077697468206C696E65206E75E2
:100220006D6265722C204C617374204C696E653A66
:100230002000636865636B73756D206D69736D6114
:100240007463682C204C617374204C696E653A208D
:10025000004C696E65204E756D6265722069732071
:100260006E6F74204C617374204C696E65204E75FE
:100270006D6265722B312C204C617374204C696E59
:10028000653A20004D3131300053657269616C2050
:10029000737461747573206D69736D617463680A3A
:1002A00000746F6F206D75636820696E6163746997
:1002B00076652074696D65202D2063757272656E98
:1002C0007420636F6D6D616E643A20002121204BB4
:1002D000494C4C206361757365642062792000622B
:1002E0007573793A2070617573656420666F72204A
:1002F000696E7075740A00627573793A2070617561
:1003000073656420666F7220757365720A0062758A
:1003100073793A2070726F63657373696E670A0050
:100320006563686F3A004572726F723A004F4646D5
:10033000004F4E0042696C696E656172204C6576B3
:10034000656C696E6720477269643A0A004F4646D9
:100350000A00466164652048656967687420004248
:100360006564204C6576656C696E6720004661693E
:100370006C656420746F20656E61626C65204265F7
:1003800064204C6576656C696E670A00496E76611B
:100390006C6964206D6573682E0A002E0A002F00B8
:1003A00050726F62696E67206D65736820706F6947
:1003B0006E742000202844525952554E290047326D
:1003C00039204175746F20426564204C6576656CF8
:1003D000696E67003F20284C2C522C462C42292065
:1003E0006F7574206F6620626F756E64732E0A00DD
:1003F0003F2856296572626F7365206C6576656C5F
:1004000020696D706C61757369626C652028302D90
:1004100034292E0A00426164205A2076616C756589
:100420000A004E6F2062696C696E656172206772A6
:1004300069640A0020440020204D323030205300EF
:10044000202844697361626C6564293A0046696CCE
:10045000616D656E742073657474696E67730020D6
:10046000204D3230312058004D6178204163636562
:100470006C65726174696F6E2028756E6974732F74
:100480007332290020204D3230332058004D6178DE
:10049000206665656472617465732028756E697481
:1004A000732F73290020520020204D323034205009
:1004B00000416363656C65726174696F6E202875B5
:1004C0006E6974732F7332292028503C7072696EE4
:1004D000742D616363656C3E20523C726574726179
:1004E00063742D616363656C3E20543C7472617665
:1004F000656C2D616363656C3E2900204A002054C1
:100500000020530020204D323035204200416476D7
:10051000616E6365642028423C6D696E5F73656738
:100520006D656E745F74696D655F75733E20533CD5
:100530006D696E5F66656564726174653E20543CEA
:100540006D696E5F74726176656C5F666565647215
:100550006174653E204A3C6A756E635F6465763EF1
:10056000290020440020490020204D333031205004
:1005700000486F74656E6420504944002044002098
:10058000490020204D333034205000426564205013
:1005900049440020496E76616C6964206578747204
:1005A00075646572200047322F47332062616420F2
:1005B000706172616D65746572730A005A205072C1
:1005C0006F62652050617374204265640A0047328F
:1005D00038005A2050726F62652050617374204257
:1005E000656400205A3A200020593A200042656490
:1005F00020583A20004D65736820706F696E742032
:100600006F7574206F662072616E67650A002569D8
:10061000730025696D2025697300256968202569A7
:100620006D20256973002569642025696820256986
:100630006D20256973002569792025696420256965
:10064000682025696D20256973005072696E7420D9
:1006500074696D653A20006F6B006F6666008C01EF
:100660008701800179016B0144454255473A004DAD
:100670003131322053687574646F776E004D3131BB
:1006800033205300434F4E4649475F4558504F5221
:1006900054004D4541545041434B00434F4F4C454E
:1006A000525F54454D5045524154555245004348C0
:1006B000414D4245525F54454D504552415455526B
:1006C0004500424142595354455050494E4700411C
:1006D000524353004D4F54494F4E5F4D4F44455385
:1006E00000544845524D414C5F50524F544543547D
:1006F000494F4E00455854454E4445445F4D3230B5
:1007000000435553544F4D5F4649524D5741524552
:100710005F55504C4F4144004C464E5F5752495430
:1007200045004C4F4E475F46494C454E414D4500B4
:100730004155544F5245504F52545F53445F5354A8
:10074000415455530053445F575249544500524554
:1007500050454154005344434152440050524F4D80
:1007600050545F535550504F525400484F53545FAC
:10077000414354494F4E5F434F4D4D414E4453000A
:10078000454D455247454E43595F5041525345529E
:1007900000434153455F4C494748545F42524947E3
:1007A00048544E45535300544F47474C455F4C49BE
:1007B0004748545300534F4654574152455F504F9A
:1007C000574552004255494C445F50455243454EAF
:1007D00054004C4556454C494E475F4441544100F6
:1007E0005A5F50524F42450052554E4F55540041AA
:1007F00055544F4C4556454C005052494E545F4A53
:100800004F420050524F4752455353004155544FA9
:100810005245504F52545F54454D50004155544F2E
:100820005245504F52545F504F5300564F4C554D08
:10083000455452494300454550524F4D0042494EA0
:100840004152595F46494C455F5452414E534645CB
:10085000520053455249414C5F584F4E5F584F46E6
:1008600046004649524D574152455F4E414D453A2B
:100870004D61726C696E20322E312E322E35202859
:100880004D617220313920323032352030313A31E9
:10089000313A31312920534F555243455F434F443C
:1008A000455F55524C3A6769746875622E636F6D87
:1008B0002F4D61726C696E4669726D776172652F3A
:1008C0004D61726C696E2050524F544F434F4C5FD4
:1008D00056455253494F4E3A312E30204D414348F0
:1008E000494E455F545950453A417274696C6C6584
:1008F00072792047656E69757320426C746F7563F9
:10090000682D20323032352050657472205A656D62
:10091000616E2045585452554445525F434F554EE1
:10092000543A3120555549443A6365646532613221
:10093000662D343161322D343734382D39623132FD
:100940002D633535633632663336376666002F2FB2
:10095000003F4A206F7574206F662072616E676574
:100960002028302E303120746F20302E33290A0099
:100970002058003B200020204D61783A20002000C4
:1009800020204D696E3A2000203B200020204D326F
:100990003131205300250A0046523A0020466C6F40
:1009A000773A20003A200020536572766F200020AD
:1009B0006F7574206F662072616E67650A005365FB
:1009C00072766F200050726F6265204F66667365A5
:1009D00074205A0050726F6265204F6666736574AA
:1009E000205A0064697300656E0043290A00616241
:1009F0006C656420286D696E2074656D70200043FD
:100A00006F6C6420657874727564657320617265BB
:100A100020004D34323120696E636F7272656374E9
:100A200020706172616D65746572207573616765B0
:100A30000A004D65736820706F696E74206F75745D
:100A4000206F662072616E67650A00546F6F2066C2
:100A500061722066726F6D204D494E2F4D41580ACC
:100A600000454550524F4D204F4B0A00290A0020A7
:100A7000746F20003F5A206F7574206F662072617A
:100A80006E6765202800290A0020746F20003F59F6
:100A9000206F7574206F662072616E676520282D47
:100AA00000290A0020746F20003F58206F757420C1
:100AB0006F662072616E676520282D00496E766131
:100AC0006C69642065787472756465720A006F6B76
:100AD0000020204D323036205800486F6D65206F61
:100AE0006666736574004361703A00203B00202005
:100AF0004D3835312058005A2D50726F6265204FA5
:100B000066667365740020573A0020573A002066E5
:100B100061696C6564212042616420686561746567
:100B2000722069640A00504944204175746F7475DD
:100B30006E650023646566696E65204445464155CF
:100B40004C545F0000626564004B6420004B6920D8
:100B5000004B7020002066696E697368656421200F
:100B600050757420746865206C617374204B702C10
:100B7000204B6920616E64204B6420636F6E737438
:100B8000616E74732066726F6D2062656C6F772082
:100B9000696E746F20436F6E666967757261746900
:100BA0006F6E2E680A00504944204175746F747549
:100BB0006E6500206661696C6564212074696D65ED
:100BC0006F75740A00504944204175746F74756ED6
:100BD0006500206661696C6564212054656D7065EF
:100BE00072617475726520746F6F20686967680A36
:100BF00000504944204175746F74756E6500204B38
:100C0000643A2000204B693A2000204B703A2000C3
:100C100020436C617373696320504944200A0020AB
:100C20004E6F206F76657273686F6F740A00205480
:100C3000753A2000204B753A2000206D61783A20EB
:100C400000206D696E3A200020643A20002062691D
:100C500061733A20002073746172740A0050494431
:100C6000204175746F74756E6500206661696C65EE
:100C700064212054656D70657261747572652074AD
:100C80006F6F20686967680A005049442041757495
:100C90006F74756E65005061726B6F76C3A16EC321
:100CA000AD2073656C68616C6F006F70656E005489
:100CB0005249474745524544003A20007A5F7072D6
:100CC0006F6265007A5F6D696E00795F6D696E00B5
:100CD000785F6D696E005265706F7274696E67201F
:100CE000656E6473746F70207374617475730A0039
:100CF00020746F6F206C6F6E6720657874727573E7
:100D0000696F6E2070726576656E7465640A002086
:100D1000636F6C6420657874727573696F6E207090
:100D2000726576656E7465640A00446F6DC5AF20A8
:100D30002573207072766EC3AD00486F6D652025F7
:100D40007320466972737400000000C00000A0C0E8
:100D5000000000005761726E696E673A20486F6D3F
:100D6000696E672042756D702044697669736F7291
:100D7000203C20310A0002020400005E4300006BA8
:100D80004300007A430000A0400000A040000000A3
:100D90004000000001000000010000800055555592
:100DA000000000400033333300AAAA2A00499224ED
:100DB0000000002000C7711C0099991900D1451747
:100DC00000555515003BB1130024491200111111B3
:100DD00000000010000F0F0F00E3380E0043790DE4
:100DE00000CCCC0C00C3300C00E8A20B0064210B3B
:100DF00000AAAA0A00703D0A009DD80900427B099A
:100E00000092240900DCD3080088880800104208FA
:100E10000000000800F0C107008787070075500731
:100E200000711C07003EEB0600A1BC06006990069D
:100E30000066660600703E06006118060017F4059D
:100E40000074D105005BB00500B290050062720528
:100E5000005555050078390500B81E050005050543
:100E6000004EEC040087D40400A1BD040090A70448
:100E70000049920400C17D0400EE690400C75604D5
:100E800000444404005C32040008210400411004C2
:100E900000000004003FF00300F8E0030026D20346
:100EA00000C3C30300CCB503003AA803000A9B03A8
:100EB00000388E0300C08103009F750300D06903D2
:100EC00000505E03001D53030034480300913D03AE
:100ED000003333030016290300381F03009715035E
:100EE00000300C0300030303000BFA020049F10277
:100EF00000BAE802005CE002002DD802002DD0020A
:100F00000059C80200B0C0020031B90200DAB102D3
:100F100000AAAA0200A0A30200BC9C0200FA95024B
:100F2000005C8F0200DF88020082820200457C02A2
:100F3000002776020027700200436A02007C6402E8
:100F400000D05E02003F590200C8530200FFFDFCC2
:100F5000FAF8F6F4F2F0EEECEAE9E7E5E3E1E0DED8
:100F6000DCDAD9D7D5D4D2D0CFCDCBCAC8C7C5C388
:100F7000C2C0BFBDBCBAB9B7B6B4B3B2B0AFADAC06
:100F8000AAA9A8A6A5A4A2A1A09E9D9C9A9998975B
:100F900095949392908F8E8D8B8A8988878684838F
:100FA0008281807F7E7D7B7A7978777675747372A3
:100FB00071706F6E6D6C6B6A696867666564636299
:100FC00061605F5E5D5C5B5A595858575655545383
:100FD000525150504F4E4D4C4B4A4A494847464655
:100FE000454443424241403F3E3E3D3C3B3B3A3913
:100FF000383837363535343332323130302F2E2EC3
:101000002D2C2B2B2A292928272726252524232365
:1010100022212120201F1E1E1D1C1C1B1B1A1919FA
:101020001818171616151514131312121111100F84
:101030000F0E0E0D0D0C0C0B0A0A09090808070704
:10104000060605050404030302020100005072694C
:101050006E7465722073746F70706564206475655A
:1010600020746F206572726F72732E20466978202B
:10107000746865206572726F7220616E642075738A
:1010800065204D39393920746F207265737461722F
:10109000742E202854656D706572617475726520B8
:1010A00069732072657365742E20536574206974AA
:1010B0002061667465722072657374617274696E02
:1010C00067290A00206572726F72202D2072657385
:1010D000746172742077697468204D3939390A0057
:1010E000424C546F7563680021212053544F5020A7
:1010F00063616C6C65642062656361757365206F04
:1011000066200000005C430000664300007A430054
:101110000000C00000A0C000000000290A002062FA
:10112000797465733B20637263200053657474693E
:101130006E67732053746F726564202800454550B4
:10114000524F4D20496E697469616C697A65640A11
:101150000048617264636F6465642044656661750C
:101160006C742053657474696E6773204C6F61648E
:1011700065640020286D6D2900203B204C65766554
:101180006C696E67200020204D34323020530041BE
:1011900075746F20426564204C6576656C696E6776
:1011A00000204A00202047323920572049002020C3
:1011B0004D3134392043203B20556E6974732069CA
:1011C0006E2043656C736975730A0054656D7065B4
:1011D00072617475726520556E69747300202047C2
:1011E0003231203B004C696E65617220556E697426
:1011F0007300454550524F4D206461746173697AA4
:1012000065206572726F722E0A00202863616C631C
:10121000756C6174656429210A0020213D20004518
:101220004550524F4D20435243206D69736D617498
:101230006368202D202873746F726564292000452F
:101240004550524F4D20436F72727570740A0020E2
:1012500053697A653A2000496E6465783A2000291E
:101260000A002062797465733B206372632000205A
:1012700073746F7265642073657474696E6773202C
:101280007265747269657665642028000000964373
:101290000000964300004842000020420000A042A7
:1012A0000000A0420000C8430080DE43D0070000D9
:1012B000D00700006400000010270000204D61727C
:1012C0006C696E3D563838290A00454550524F4DDD
:1012D0002076657273696F6E206D69736D617463DA
:1012E000682028454550524F4D3D0020436F756E94
:1012F0007420583A00004500626564002C20737920
:101300007374656D2073746F707065642120486517
:10131000617465725F49443A20005659534F4BC37C
:1013200081205445504C4F5441004D415854454D37
:1013300050207472696767657265640043687962FA
:1013400061207A6168C599C3AD76C3A16EC3AD0053
:1013500048656174696E67206661696C6564004EFA
:10136000C38D5A4B41205445504C4F5441004D4978
:101370004E54454D5020747269676765726564000C
:101380005445504C4F544EC38D20C39A4E494B0088
:10139000546865726D616C2052756E617761790079
:1013A000202F002042403A0020403A002001400116
:1013B00030013B01400136016001310170012C0117
:1013C00090012701B0012201C0011D01F0011801A7
:1013D0001002130130020E016002090190020401A3
:1013E000C002FF000003FA004003F5008003F00094
:1013F000D003EB002004E6007004E100E004DC0010
:101400004005D700C005D2004006CD00D006C80078
:101410008007C3003008BE00F008B900C009B4005E
:10142000B00AAF00B00BAA00D00CA500000EA000BF
:10143000500F9B00C01096005012910000148C00B9
:10144000C0158700B0178200B0197D00D01B78004E
:10145000001E730040206E0090226900F02464009A
:1014600040275F0090295A00E02B5500102E5000B5
:1014700020304B0010324600E033410090353C00F4
:101480001037370070383200A0392D00B03A2800EC
:10149000A03B2300603C1E00103D1900903D14004D
:1014A000103E0F00703E0A00C03E0500003F0000E5
:1014B000403FFBFF803FF6FFC03FF1FF2020506C14
:1014C000616E6E65724275666665724279746573A7
:1014D0003A20002046726565204D656D6F72793A3D
:1014E000200020436F6D70696C65643A204D617215
:1014F00020313920323032350A00204C617374209B
:10150000557064617465643A20323032342D313163
:101510002D3138207C20417574686F723A20285034
:10152000657472205A656D616E290A004D61726C96
:10153000696E20322E312E322E350A0020536F660E
:1015400074776172652052657365740A0020576173
:10155000746368646F672052657365740A00204283
:10156000726F776E206F75742052657365740A0010
:101570002045787465726E616C2052657365740ADB
:1015800000506F77657255700A0073746172740A47
:101590000020503A00656E6473746F707320686940
:1015A000743A200000000A0B02090C0D0E08070314
:1015B0000401000000000000000000000000000026
:1015C000000000000000000000000000000000001B
:1015D00012111000000000000000000000000000D8
:1015E0000000000000000000000024F404D9201BCB
:1015F000C40C5C0E9804C4095F0265077101F40510
:10160000F900FB04B30048048700C10369005803D4
:10161000550003034500BE023A0084023100530224
:101620002A002902250004022000E4011C00C80150
:101630001900AF0117009801140084011300710113
:1016400010006101100051010E0043010D00360130
:101650000B002B010B0020010B00150109000C01F0
:10166000090003010800FB000800F3000800EB007C
:101670000700E4000600DE000600D8000600D200E5
:101680000600CC000500C7000500C2000500BD0033
:101690000400B9000400B5000400B1000400AD006E
:1016A0000400A9000400A5000300A20003009F009D
:1016B00004009B00030098000300950002009300C3
:1016C0000300900003008D0002008B0003008800DF
:1016D00002008600020084000300810002007F00F7
:1016E00002007D0002007B0002007900020077000A
:1016F0000100760002007400020072000100710017
:1017000002006F0002006D0001006C0002006A0020
:101710000100690002006700010066000100650029
:10172000010064000200620001006100010060002D
:1017300001005F0002005D0001005C0001005B0031
:1017400001005A0001005900010058000100570033
:101750000100560001005500010054000100530033
:101760000000530001005200010051000100500030
:1017700001004F0001004E0000004E0001004D002E
:1017800001004C0001004B0000004B0001004A002A
:101790000100490001004800000048000100470026
:1017A0000100460000004600010045000000450021
:1017B000010044000100430000004300010042001A
:1017C0000000420001004100000041000100400013
:1017D00001003F0000003F0001003E0000003E000D
:1017E00001003D0000003D0001003C0000003C0005
:1017F00000003C0001003B0000003B0001003A00FB
:1018000000003A00010039000000390001003800F2
:1018100000003800000038000100370000003700E9
:1018200001003600000036000000360001003500DF
:1018300000003500000035000100340000003400D5
:1018400000003400010033000000330000003300CA
:1018500001003200000032000000320001003100BF
:1018600000003100000031000100300000003000B5
:101870000000300001002F0000002F0000002F00AA
:1018800000002F0001002E0000002E0000002E009E
:1018900001002D0000002D0000002D0000002D0093
:1018A00001002C0000002C0000002C0000002C0087
:1018B00001002B0000002B0000002B0000002B007B
:1018C00001002A0000002A0000002A0000002A006F
:1018D0000100290000002900000029000000290063
:1018E0000000290001002800000028000000280056
:1018F0000000280000002800010027000000270049
:10190000000027000000270000002700010026003B
:10191000000026000000260000002600000026002F
:101920000100250000002500000025000000250022
:101930000000250000002500010024000000240014
:101940000000240000002400000024000100230007
:1019500000002300000023000000230000002300FB
:1019600000002300000023000100220000002200EC
:1019700000002200000022000000220000002200DF
:1019800001002100000021000000210000002100D2
:1019900000002100000021000000210001002000C3
:1019A00000002000000020000000200000002000B7
:1019B00000002000000020000000200001001F00A7
:1019C00000001F0000001F0000001F0000001F009B
:1019D00000001F0000001F0001001E0000001E008C
:1019E00000001E0000001E00000024F4D43050C38C
:1019F0008E20C2A24017828B7011127A910D816CD9
:101A0000D90AA861E108C7586607615143061E4B11
:101A10005D05C145A7041A411104093D98037139B8
:101A200031034036DB0265339102D4305402802EFC
:101A30001D02632CEE01752AC501B028A0011027F4
:101A400081018F2564012B244B01E0223401AC215C
:101A50001F018D200D01801FFC00841EED00971DCD
:101A6000DF00B81CD200E61BC600201BBC00641AB5
:101A7000B200B219A8000A19A0006A189900D1177B
:101A8000910040178B00B516840031167E00B31507
:101A900079003A157300C7146F0058146A00EE13EA
:101AA00066008813630025135E00C7125B006C128A
:101AB000570015125400C111510070114F0021112F
:101AC0004B00D61049008D1047004610440002100C
:101AD0004200C00F4000800F3E00420F3C00060F46
:101AE0003B00CB0E3800930E37005C0E3500270EFE
:101AF0003400F30D3200C10D3100900D3000600D47
:101B00002E00320D2D00050D2C00D90C2B00AE0C33
:101B10002900850C29005C0C2700350C27000E0CD1
:101B20002600E80B2400C40B2400A00B23007D0B2F
:101B300023005A0B2100390B2100180B2000F80A52
:101B40001F00D90A1E00BB0A1E009D0A1D00800A44
:101B50001D00630A1C00470A1B002C0A1B00110A07
:101B60001A00F7091A00DD091900C4091900AB09A8
:101B70001900920917007B091800630917004C0926
:101B8000160036091600200916000A091500F50886
:101B90001500E0081400CC081400B8081400A408CC
:101BA0001400900813007D0812006B0813005808F9
:101BB0001200460812003408110023081100120810
:101BC000110001081100F0071000E0071000D00715
:101BD0001000C0071000B0070F00A1071000910708
:101BE0000E0083070F0074070F0065070E005707EC
:101BF0000E0049070E003B070D002E070E002007C0
:101C00000D0013070D0006070D00F9060C00ED0688
:101C10000D00E0060C00D4060C00C8060C00BC0643
:101C20000C00B0060C00A4060B0099060C008D06F3
:101C30000B0082060B0077060B006C060B0061069A
:101C40000A0057060B004C060A0042060A00380636
:101C50000A002E060A0024060A001A060A001006C8
:101C6000090007060A00FD050900F4050900EB0557
:101C70000900E2050900D9050900D0050900C705DA
:101C80000900BE050900B5050800AD050800A50559
:101C900009009C050800940508008C0508008405CF
:101CA00008007C050800740508006C050700650540
:101CB00008005D050700560508004E0507004705AA
:101CC00007004005080038050700310507002A0510
:101CD0000700230507001C050600160507000F0571
:101CE00007000805060002050700FB040600F504CE
:101CF0000700EE040600E8040600E2040700DB0427
:101D00000600D5040600CF040600C9040600C3047B
:101D10000600BD040600B7040600B1040500AC04CB
:101D20000600A6040600A00405009B040600950416
:101D30000500900406008A0405008504050080045F
:101D400006007A04050075040500700405006B04A4
:101D5000050066040500610405005C0405005704E5
:101D60000500520405004D04050048040500430425
:101D700005003E0404003A04050035040500300463
:101D800004002C04050027040400230405001E049D
:101D900004001A04040016040500110404000D04D4
:101DA0000400090405000404040000040400FC030A
:101DB0000400F8030400F4030400F0030400EC033F
:101DC0000400E8030400E4030400E0030400DC036F
:101DD0000400D8030400D4030400D0030400CC039F
:101DE0000400C8030300C503030072290000E520B6
:101DF000000049170000B60E0000790800009504A5
:101E000000006302000038010000FFFFFF50726F06
:101E100062696E67204661696C65640A00205A3AFF
:101E2000200020593A200042656420583A2000DB07
:101E30000FC93F45BCDA3F8FB30240FCF027405644
:101E4000946140FE4B9B4084A5D840E02318413468
:101E50006A5641E859974164DBD5416E271742B471
:101E6000B75542CE1A9742C8AED542B5885A43D428
:101E70000684BFA65FA7BF7443E0BF10B11AC01CA1
:101E80002C58C0E8F697C0B849D6C04E4E17C124AA
:101E9000D355C1802497C1A0B5D5C1121A17C24429
:101EA000AE55C2781797C26CACD5C267885AC320AA
:101EB000746F6F206C6F6E672065787472757369CC
:101EC0006F6E2070726576656E7465640A002063BB
:101ED0006F6C6420657874727573696F6E207072B0
:101EE0006576656E7465640A00220A00556E6B6E35
:101EF0006F776E20636F6D6D616E643A20220020F3
:101F00004500205A0020590020204D393220580029
:101F100053746570732070657220756E6974006FFC
:101F20006B0A00526573656E643A200020453A00E2
:101F3000205A3A0020593A00583A00000022002561
:101F40000028002B002E00310034000201000005A3
:101F50000108010B0100002100240027002A002DA8
:101F6000003000330001010000040107010A0105EF
:101F7000050505070508080808020202020A0A0802
:101F80000804040404010101010101010103030328
:101F90000303030303040707070C0C0C0C0C0C0CC5
:101FA0000C0202020206060606060606060B0B0BCC
:101FB0000B0B0B0B0B010210202008081020401007
:101FC00020408002010201080402010102040810FD
:101FD000204080804020100804020180040201801B
:101FE0004020100804020108040201010204081044
:101FF00020408001020408102040804572726F72F8
:102000002077726974696E6720746F20454550525D
:102010004F4D210A005072696E7465722068616CC0
:102020007465642E206B696C6C28292063616C6C6C
:102030006564210A0000A09211241FBECFEFD1E2F7
:10204000DEBFCDBF00E00CBF84B78093D00E14BEBE
:102050000FB6F894A8958091600088618093600025
:10206000109260000FBE13E0A0E0B2E0E8E2F9E4F5
:1020700001E00BBF02C007900D92A431B107D9F760
:102080002EE0A4E1B3E001C01D92A03DB207E1F74C
:1020900010E1CCE1D0E100E006C021970109802FDA
:1020A000FE010E9484A1CB31D10780E00807A9F787
:1020B0000E949B930C9492A40C940000FC0120813C
:1020C0008091E70D9091E80D922728E0AC01880FF0
:1020D000991F57FD07C02150C9F79093E80D8093D1
:1020E000E70D0895F1E28F27F0E19F27F4CF90E00C
:1020F000FC01EB54F04E24918159904EFC018491E7
:10210000882399F090E0880F991FFC01EB5AF04E5C
:10211000A591B491FC01E55CF04E859194918FB747
:10212000F894EC91E22BEC938FBF0895CF92DF925D
:10213000EF92FF920F931F932AEE3DE141E0F901E8
:10214000C590D590E590F490C616D706E806F90636
:1021500058F49695879577956795440F2C5F3F4F78
:102160005EE12630350759F74093E9066132710583
:102170008105910568F4EAEEF9E16591749190E0CA
:1021800080E01F910F91FF90EF90DF90CF90089526
:10219000DC01CB018097A109B109811528E09207E4
:1021A000A105B105C8F044E0949F90011124265187
:1021B0003A4EF901329645915491F90125913491A5
:1021C0006627859FF001849F000CE11DF61F1124F6
:1021D0002E1B3F0BB901D3CF8C019D01369527955E
:1021E000179507950C7F0651164EF80125913491ED
:1021F000F801329645915491682F6770649FC00131
:10220000659F900D112443E0969587954A95E1F7D7
:10221000281B390BDFCF282F30E0F901EC55FA4E9F
:102220009491F901EB54F04E44912159304EF9014B
:102230002491222309F435C0992311F19150923150
:10224000F8F4E92FF0E08827E75DFE4E8F4F0C94FD
:1022500084A15A115E113B115211561140116111A6
:1022600067116B117111751179117F118311401173
:1022700087118D119111809180008F77809380005C
:10228000E22FF0E0EE0FFF1FE55CF04EA591B49158
:102290008FB7F894EC91611148C040954E234C9350
:1022A0008FBF0895809180008F7DE8CF809180005E
:1022B000877FE4CF84B58F7784BDE2CF84B58F7DEF
:1022C000FBCF8091B0008F778093B000D9CF809101
:1022D000B0008F7DF9CF809190008F778093900030
:1022E000CFCF809190008F7DF9CF80919000877F34
:1022F000F5CF8091A0008F778093A000C1CF80910F
:10230000A0008F7DF9CF8091A000877FF5CF8091CD
:1023100020018F7780932001B3CF809120018F7DA2
:10232000F9CF80912001877FF5CF4E2BB8CF3FB7F3
:10233000F8948091E5069091E606A091E706B091A9
:10234000E80626B5A89B05C02F3F19F00196A11DF0
:10235000B11D3FBFBA2FA92F982F8827BC01CD01EF
:10236000620F711D811D911D42E0660F771F881F4E
:10237000991F4A95D1F708958F929F92AF92BF927D
:10238000CF92DF92EF92FF926B017C01D0DF4B0185
:102390005C01C114D104E104F104B1F0C8DF681993
:1023A00079098A099B09683E73408105910588F384
:1023B00021E0C21AD108E108F10888EE880E83E016
:1023C000981EA11CB11CE5CFFF90EF90DF90CF903D
:1023D000BF90AF909F908F9008952FB7F894609121
:1023E000E1067091E2068091E3069091E4062FBF2A
:1023F00008952F923F924F925F926F927F928F92A9
:102400009F92AF92BF92CF92DF92EF92FF920F9383
:102410001F93CF93DF9300D000D0CDB7DEB7DC01A0
:102420000D90BC91A02DBE83AD8318966D917C91CB
:10243000072E000C880B990B0E94399D6B017C01C3
:1024400020E030E0A9010E94339D8823E1F0AD81B6
:10245000BE8114968D919D910D90BC91A02D898384
:102460009A83AB83BC839C01AD01C701B6010E9476
:102470009EA14B015C0120E030E040E251EC0E9463
:10248000339D87FF08C081E0ED81FE818387C12CE9
:10249000D12C7601DCC020E030E040E251E4C501FF
:1024A000B4010E94C5A3181664F481E0AD81BE8119
:1024B0001B968C93C12CD12C8FE7E82E83E4F82E49
:1024C000C6C0ED81FE818385882349F0138614867A
:1024D000158616861786148E158E168E178EAD816C
:1024E000BE8194964D905D906D907C9097971C96D0
:1024F0002D913D914D915C911F97C501B4010E94B2
:102500009FA1F62EE72ED82EC92E20E030E0A9019B
:102510000E94339D87FDB6C0A301920160E070E088
:102520008FE793E40E947BA2162F072F382E292EC7
:102530002F2D3E2D4D2D5C2D0E94339D87FF02C017
:10254000780161018F2D9E2DAD2DBC2DED81FE8179
:1025500084879587A687B78720A131A142A153A17F
:10256000C501B4010E94989D4B015C01AD81BE8103
:1025700054968D929D92AD92BC9257972F2D3E2DE1
:102580004D2D5C2DC301B2010E94989D2B013C0191
:10259000ED81FE81408E518E628E738EC48CD58CFF
:1025A000E68CF78C29813A814B815C816089718945
:1025B000828993890E949EA1AD81BE8198962D91BA
:1025C0003D914D915C919B970E94989DA70196012A
:1025D0000E949EA120ED3CEC4CE45DE30E94989D9E
:1025E000A70196010E949FA16B017C01ED81FE81F4
:1025F000C48ED58EE68EF78E89819A81AB81BC819F
:10260000808B918BA28BB38BA3019201C501B40186
:102610000E949FA1A70196010E949FA120E030E0A7
:10262000A9010E949FA16B017C0120E030E0A9017B
:102630000E94339D87FD2BCF20E030E04FE753E42D
:10264000C701B6010E94C5A318160CF433CFC70109
:10265000B60126960FB6F894DEBF0FBECDBFDF9150
:10266000CF911F910F91FF90EF90DF90CF90BF908F
:10267000AF909F908F907F906F905F904F903F9022
:102680002F900895F12CE12CD12CC12C5BCFCF934E
:10269000DF93C0912F0ED091300E209721F16091E1
:1026A0002B0E70912C0E80912D0E90912E0E0E946B
:1026B000E3A26E5F7F4F26976C177D07A4F470939B
:1026C000EF046093EE0489DE605C73468F4F9F4F8A
:1026D0006093F0047093F1048093F2049093F304F8
:1026E000DF91CF9108951092F0041092F1041092AE
:1026F000F2041092F304F4CF8F929F92AF92BF92A4
:10270000CF92DF92EF92FF920F931F93CF93DF93BD
:10271000B4E4A0E06A2F70E0AB014B0F511D55955A
:102720004795411119C0EEEAF3E165917491072EC6
:10273000000C880B990B0E94399DDF91CF911F915E
:102740000F91FF90EF90DF90CF90BF90AF909F9050
:102750008F900895B42FE0CFA41711F0B41303C0E5
:10276000EAEBF4E1E2CF9A0121503109220F331F45
:10277000220F331FF901E455FC4EE590F490F90166
:10278000E055FC4EC591D4918E159F0518F3A42FEA
:10279000C817D90708F4BECFF901E255FC4E0591E0
:1027A0001491F901EE54FC4EC590D4908E199F09F6
:1027B000BC0190E080E00E94379D4B015C01B601B6
:1027C000601B710B072E000C880B990B0E94399D22
:1027D0009B01AC01C501B4010E94989D4B015C01B5
:1027E000CE19DF09BE0190E080E00E94379D9B0179
:1027F000AC01C501B4010E947BA26B017C01B80150
:10280000110F880B990B0E94399D9B01AC01C701E8
:10281000B6010E949FA191CFCF93DF93C5EFD2E184
:1028200020E030E048E452E460912B0E70912C0ED1
:1028300080912D0E90912E0E0E94C5A387FF13C08C
:1028400080E0FE01C4912091020190E002C09595C4
:102850008795CA95E2F780FD0EC020712093000194
:10286000DF91CF910895FE01949181E001C0880F1E
:102870009A95EAF7E6CF2095F0CF8091C50488239A
:1028800039F06091C70E7091C80E8091C90E0895FD
:1028900060E070E080E00895FC0190E1A5EBB4E019
:1028A00001900D929A95E1F70895BC012091B20430
:1028B0003091B3044091B2045091B304241735070A
:1028C00031F481E02617370709F080E008959A0176
:1028D000F1CFEF92FF920F931F93E0922103F092BA
:1028E0002203009323031093240360932503709322
:1028F0002603809327039FEFFF27621B730B840B34
:1029000030F4809570956195790B890B9927909398
:102910002003A6E06A9F00921403512DEE277A9FB0
:10292000500DE11D8A9FE00D50931503E0931603AF
:10293000AFE06A9F00921803512DEE277A9F500D49
:10294000E11D8A9FE00D50931903E0931A03AAE05A
:102950006A9F00921C03512DEE277A9F500DE11DB6
:102960008A9FE00D50931D03E0931E031F910F916A
:10297000FF90EF90089500C0000080E090E0019784
:10298000F0F78091F90480FF28C0899A8FEF809337
:102990006B048091F90481FF23C08F9A8FEF80939D
:1029A0006C048091F90482FF1EC080910B0182703B
:1029B0008093090143988FEF80936D048091F9040F
:1029C00083FF1AC016988FEF80936E0400C000003A
:1029D00080E090E00197F0F70895899881E0D7CFE3
:1029E0008F9881E0DCCF80910B018095827080937D
:1029F0000901439A81E0E0CF169A81E0E5CF80910A
:102A00006A04877F80936A04129A81E0089512987D
:102A100080916A04886080936A04089521E030E020
:102A2000082E02C0220F331F0A94E2F7209530953A
:102A300090916A04292320936A04813061F020F088
:102A4000823071F081E008955F9A8091EA068E7F6E
:102A50008093EA06F7CF8A9A8091EA068D7FF8CFB5
:102A6000809108018095817080930601479A80913A
:102A7000EA068B7FEDCF80E0D1DF81E0CFDF82E01F
:102A8000CDDFBDCF813089F070F0823081F021E060
:102A900030E001C0220F8A95EAF780916A04822B08
:102AA00080936A0408955F98F2CF8A98F0CF90914E
:102AB00008019170909306014798E9CFCF93DF9377
:102AC000EC01C43081E0D80764F184E091E0909398
:102AD000300E80932F0EC4E0D1E060912B0E7091E8
:102AE0002C0E80912D0E90912E0E0E94E3A26E5F0F
:102AF0007F4F26976C177D07D4F47093EF04609393
:102B0000EE046BDC605C73468F4F9F4F6093F00464
:102B10007093F1048093F2049093F304DF91CF91CA
:102B20000895D093300EC0932F0E2097B1F61092D7
:102B3000F0041092F1041092F2041092F304EECF1C
:102B4000CF93DF938091EB03811119C0C0911D02D7
:102B5000D0911E02219720E030E040E05FE36091D9
:102B60002B0E70912C0E80912D0E90912E0E0E94A6
:102B70009FA10E94E3A221E06C177D070CF020E0EA
:102B8000822FDF91CF9108959F92AF92BF92CF9203
:102B9000DF92EF92FF920F931F93CF93DF9300D0BA
:102BA0001F921F92CDB7DEB7EDE4FFE00027BB27F1
:102BB000462F572FA82FAA2341F4A52F542FB85FD3
:102BC000AA2319F4A52F5527B85FA03138F45295E0
:102BD000A295452F4F70507FA42BBC5FA03428F4E2
:102BE000550FAA1F550FAA1FBE5FA03818F4550F26
:102BF000AA1FB395550FAA1FEA0FF01F449151E089
:102C0000AA27B85079F1C0F0B0FF02C0440F551F99
:102C1000B1FF04C0440F551F440F551FB2FF06C03B
:102C200052954295142F1F70407F512BB3FF1AC04D
:102C3000A52F542F442716C0B195B0FF02C055955B
:102C40004795B1FF04C05595479555954795B2FFF7
:102C500005C05295407F4295452B5F70B3FF02C07F
:102C6000452F5527DD24CC24BB24B2E0649FD01827
:102C7000C108B00AB00B749FC018B108B00B849F94
:102C8000B018B109659FC018B108B00B759FB01896
:102C9000B109859FB0196A9FB018B1097A9FB01920
:102CA0004D9DA12C99243327992722275D9DA00CA7
:102CB000911C301F901F201FAD9D900C311D901F47
:102CC000201F4C9DA00C911C301F901F201F5C9D4D
:102CD000900C311D901F201FAC9D300D911D201FA9
:102CE0004B9D900C311D901F201F5B9D300D911D41
:102CF000201FAB9D900D211D4B9F300D911D201F5E
:102D00005B9F900D211DAB9F200DB1E0BB24CC2417
:102D1000DD24639FD018C108B00AB00B739FC018A0
:102D2000B108B00B839FB018B109699FC018B108F2
:102D3000B00B799FB018B109899FB019629FB01884
:102D4000B109729FB019D61AC70AB80A20F0B1E0CB
:102D50003B0F901F201F1124792F632F90E0822FAB
:102D60000F900F900F900F900F90DF91CF911F91C8
:102D70000F91FF90EF90DF90CF90BF90AF909F901A
:102D80000895AF92BF92CF92DF92EF92FF920F938E
:102D90001F93CF93DF93CBE2D7E000E017E08BE304
:102DA000A82E87E0B82EC12CD12C7601C39469914E
:102DB0007991899199910E94379D288939894A8909
:102DC0005B890E94989D0E94E8A2F801619371932B
:102DD000819391938F01C616D706E806F90610F481
:102DE0006B017C01AC16BD0611F76FEF7FEFCB01D5
:102DF000A70196010E940DA120931007309311079F
:102E00004093120750931307DF91CF911F910F91B9
:102E1000FF90EF90DF90CF90BF90AF900895CF924A
:102E2000DF92EF92FF9280910004882309F457C04B
:102E3000C090FC03D090FD03E090FE03F090FF03F0
:102E400020E030E0A901C701B6010E94339D88232C
:102E500009F445C020E030E040E05FE3C701B6017F
:102E60000E94989D9B01AC010E94989D2BED3FE034
:102E700049E450E40E94989D9B01AC0160E070E041
:102E800080E89FE30E947BA26B017C01C092E70374
:102E9000D092E803E092E903F092EA03609117020E
:102EA00070911802072E000C880B990B0E94399D17
:102EB0002AE037ED43E25CE30E94989DA70196016A
:102EC0000E94989D60934E0270934F02809350022F
:102ED00090935102FF90EF90DF90CF900895C12C16
:102EE000D12C80E8E82E8FE3F82ED0CF90916F00A0
:102EF00081E091FD02C080E0089590916F009D7F78
:102F000090936F000895EFE6F0E080818260808307
:102F10000895CF93C82FEADF94E0C99F9001112450
:102F2000F901EE52F94F2B543B4FD9014D915D9170
:102F30006D917C91408351836283738391E0909380
:102F4000B404882311F0CF91DECFCF910895CF92B2
:102F5000DF92EF92FF92CF93DF93C82FC7DF94E009
:102F6000C99FE0011124FE01EB54FB4FC080D180CA
:102F7000E280F3808111C7DFCA5ED84FC701B60176
:102F80000E94399D288139814A815B810E94989DE8
:102F9000DF91CF91FF90EF90DF90CF9008958F3029
:102FA00010F48F5F08958F500895CF93DF93909121
:102FB000B10E8091B00E891740F0891B41F4D0E02A
:102FC000C0E0CE01DF91CF910895805FF6CF909160
:102FD000AD0E992351F0833030F48FEF890F19F043
:102FE0008093AD0EECCF1092AD0EC091B10E87E57F
:102FF000C89FE0011124C058D84F888180FDDFCFE1
:103000008091B10ECCDF8093AE0E9091B10E809185
:10301000AF0E9813D6CF8091AE0E8093AF0ED1CF66
:10302000FC017081472F50E0062E02C05595479550
:103030000A94E2F740FF14C04091CA0350E0062E04
:1030400002C0559547950A94E2F740FF09C021E078
:1030500030E001C0220F6A95EAF7209527232083EC
:103060000895CF93DF9324E0829FC0011124EC01E7
:10307000C752D24FFC01E450FB4F85539C4FDC01FB
:103080002D913D914D915C916081718182819381FF
:103090000E949FA1688379838A839B83DF91CF916C
:1030A0000895CF93DF931F92CDB7DEB7898360E099
:1030B000CE010196B5DF61E0CE010196B1DF62E09D
:1030C000CE010196ADDF89810F90DF91CF910895F8
:1030D0008F929F92AF92BF92CF92DF92EF92FF9228
:1030E000CF93DF9320911F02222309F48EC0EC01BD
:1030F0008091CA03E82E80FF2CC08090210290901E
:103100002202A0902302B0902402288139814A81B2
:103110005B81C501B4010E94C5A3181624F48882FE
:103120009982AA82BB8280902D0290902E02A0905C
:103130002F02B0903002288139814A815B81C5011C
:10314000B4010E94339D87FF04C088829982AA82BD
:10315000BB82E1FE2CC08090250290902602A090B8
:103160002702B09028022C813D814E815F81C501EC
:10317000B4010E94C5A3181624F48C829D82AE82ED
:10318000BF828090310290903202A0903302B090C2
:1031900034022C813D814E815F81C501B4010E94C2
:1031A000339D87FF04C08C829D82AE82BF82E2FE87
:1031B0002CC0C0902902D0902A02E0902B02F090FF
:1031C0002C02288539854A855B85C701B6010E9496
:1031D000C5A3181624F4C886D986EA86FB86C09053
:1031E0003502D0903602E0903702F0903802288500
:1031F00039854A855B85C701B6010E94339D87FFEB
:1032000004C0C886D986EA86FB86DF91CF91FF90FD
:10321000EF90DF90CF90BF90AF909F908F900895E8
:103220008091C6039091C703A091C803B091C903D0
:103230008093130290931402A0931502B093160288
:103240008091C4039091C503909312028093110260
:1032500008958091130290911402A0911502B091EB
:1032600016028093C6039093C703A093C803B0933C
:10327000C90380911102909112029093C50380932B
:10328000C40384E690E090931202809311020895A3
:10329000CF93DF938091B703659979C08160809364
:1032A000B703909103018091B70391FD72C08260D2
:1032B0008093B7038091B7034B996DC0846080936E
:1032C000B7038091B7034A9B68C088608093B703B7
:1032D0008091B7039091B603981709F460C092E00B
:1032E0009093B5038093B6038091F804811105C0D3
:1032F0008091EB06882309F45FC0C091A504C0FF4C
:103300000FC08091F90480FF0BC08091B40380FF4F
:1033100007C08091DF0681608093DF0680E0F9DDE1
:10332000C1FF0FC08091F90481FF0BC08091B403ED
:1033300081FF07C08091DF0682608093DF0681E015
:10334000E8DDC2FF39C08091F90482FF35C0809169
:10335000EB0681110BC08091B40382FF07C08091FE
:10336000DF0684608093DF0682E0D3DD8091EB0688
:10337000882311F18091B40383FF1EC08091DF0682
:1033800088608093DF0682E0DF91CF91C2CD8E7F8F
:1033900086CF8D7F8DCF8B7F92CF877F97CF809188
:1033A000B503882309F4A0CF81508093B503811120
:1033B0009BCF9093B40398CFDF91CF9108950F9353
:1033C0001F938091B303813011F507D80091AB03AF
:1033D0001091AC032091AD033091AE03601B710BD3
:1033E000820B930B28EE33E040E050E00E940DA1E9
:1033F0006091A7037091A8038091A9039091AA03FB
:10340000620F731F841F951F1F910F910895609184
:10341000AF037091B0038091B1039091B203D6CF06
:103420001092B3031092AB031092AC031092AD0351
:103430001092AE031092AF031092B0031092B1033A
:103440001092B2031092A7031092A8031092A9033E
:103450001092AA0308958091B3038130E1F0823085
:10346000C1F4ADDF6093A7037093A8038093A90311
:103470009093AA0381E08093B3030E94ED116093BF
:10348000AB037093AC038093AD039093AE0381E0E4
:103490000895C6DFEFCF80E008958091B303815097
:1034A000823070F41092B3030E94ED116093AF0369
:1034B0007093B0038093B1039093B20381E00895B9
:1034C00080E0089520912F0E3091300E2635310581
:1034D0003CF42091030E3091040E263031051CF08F
:1034E000882319F0B8CF6111D8CF0895CF93DF9317
:1034F000C091030ED091040E209729F16091FF0D29
:103500007091000E8091010E9091020E0E94E3A234
:103510006E5F7F4F24976C177D07ACF47093D204D5
:103520006093D1040E94ED11605A75418F4F9F4FF7
:103530006093D3047093D4048093D5049093D604FD
:10354000DF91CF9108951092D3041092D404109279
:10355000D5041092D604F4CFCF93DF931092E604F3
:10356000C7E2DEE01986188692D81A862C98CBEF2F
:10357000DDE019861886BADF1A8680910201807212
:1035800080930001DF91CF91089590E080E008954D
:103590002091C60E833021F425FD0CC024FD0CC003
:1035A00030E0A90102C0559547958A95E2F7CA0116
:1035B0008170089581E0089580E0089580919903D5
:1035C00084FD0BC080919B0387FD07C090919C03F5
:1035D000937081E019F480E0089581E00895FC0182
:1035E000659175918591949108952FEB280F2A315B
:1035F00008F047C0E22FF0E08091990390919A0380
:10360000A0919B03B0919C0304C0B695A795979594
:1036100087952A95D2F780FD02C081700895E15800
:10362000FC4FE081EE2341F18091290790912A0718
:10363000E80FF92FF11D808190ED980F9A3030F04E
:103640008E3251F4818180538A3098F4F0937B0359
:10365000E0937A0381E008958D3211F08B3249F4C2
:10366000818190ED980F9A3088F38E3211F4828127
:10367000EACFF0E0E0E0EACF10927B0310927A0309
:10368000E9CF80E00895B1DF882341F081E0209107
:103690007A0330917B03232B09F480E00895E9E657
:1036A000F3E080EF9FEFA9E7B4EC84839583A683D2
:1036B000B78380839183A283B383E3E5F3E08DE94D
:1036C0008183808308958F929F92AF92BF92CF9211
:1036D000DF92EF92FF92FC0198E0A4EFB3E001903B
:1036E0000D929A95E1F788E0FB01ACEEB3E0019012
:1036F0000D928A95E1F7C090F403D090F503E09025
:10370000F603F090F70320E030E0A901C701B6010D
:103710000E94339D8823E1F1A701960160E070E0EB
:1037200080E89FE30E947BA26B017C018090F803FC
:103730009090F903A090FA03B090FB0320E030E0F2
:10374000A901C501B4010E94339D882329F1A50177
:10375000940160E070E080E89FE30E947BA2C09249
:103760006103D0926203E0926303F092640360937A
:103770006503709366038093670390936803FF90DB
:10378000EF90DF90CF90BF90AF909F908F90089573
:10379000C12CD12C7601CACF60E070E0CB01DFCF25
:1037A0001092F0031092F1031092F2031092F303BF
:1037B0001092EC031092ED031092EE031092EF03BF
:1037C0001092F8031092F9031092FA031092FB037F
:1037D0001092F4031092F5031092F6031092F7037F
:1037E000E1E0F4E025E634E080E090E0A0ECBFE723
:1037F00080839183A283B38384839583A683B783D5
:1038000080879187A287B38784879587A687B787A4
:10381000808B918BA28BB38B74962E173F0741F749
:10382000089581E008958F929F92AF92BF92CF92B8
:10383000DF92EF92FF92FC01828158E5C52E52E0A3
:10384000D52EC81AD10887FDD394CC0CDD1CCC0C26
:10385000DD1C0D2C000CEE08FF08818178E8872E16
:10386000912C881A910887FD9394880C991C880CD8
:10387000991C092C000CAA08BB0880818F3FD1F14C
:1038800090E0FC01EE0FFF1FE80FF91FED5AF14F1A
:103890008181928133E0880F991F3A95E1F7B0E07A
:1038A000A0E044E0B595A795979587954A95D1F7FF
:1038B00002969C012F5F3F4F032E000C440B550BCB
:1038C000281939094A095B09A4EBB0E00E944BA111
:1038D000A7019601281939094A095B090E942FA1FD
:1038E000C901FF90EF90DF90CF90BF90AF909F9075
:1038F0008F90089590E080E0DCCFDC01EC918E2F7A
:1039000090E0FC01EE0FFF1FE80FF91FED5AF14F99
:1039100080818F7780830895CF93DF93EC01E62F2A
:10392000660FFF0BEC55FA4EE491E250E13108F0DE
:10393000B0C0F0E08827E056F34E8F4F0C9484A17E
:10394000B11C491D491D491D491DDB1CBD1CFF1C27
:10395000FD1CDD1C231D211D011D491D471D451D8D
:10396000251D82E1E2E6F2E0DE0101900D928A95EA
:10397000E1F7CE01DF91CF91089581E020EB30E0B7
:103980003983288321EB30E03B832A831D821C820C
:1039900023EB30E03F832E8324EB30E03987288708
:1039A0001B861A861D861C8692E09E878F8781E083
:1039B000888B198ADECF80E0E1CF81E08F5F20E93C
:1039C00030E03983288321E930E03B832A8322E9F0
:1039D00030E03D832C8328E930E03F832E832AE9C1
:1039E00030E0398728872CE930E03B872A8726E9B1
:1039F00030E03D872C8793E0D8CF80E0DFCF80E0B8
:103A0000DECF81E08F5F20EA30E03983288321EA2E
:103A100030E03B832A8322EA30E03D832C8328EA8E
:103A200030E03F832E832AEA30E0398728872CEA6A
:103A300030E03B872A8726EA30E03D872C8794E0F8
:103A4000B4CF80E0DFCF80E0DECF81E08F5F20E287
:103A500031E03983288321E231E03B832A8322E26B
:103A600031E03D832C8328E231E03F832E832AE23C
:103A700031E0398728872CE231E03B872A8726E22C
:103A800031E03D872C8795E090CF80E0DFCF80E06C
:103A9000DECF82E1FE0111928A95E9F76ACFEF92BB
:103AA000FF920F931F93CF93DF93CDB7DEB762974B
:103AB0000FB6F894DEBF0FBECDBF6115710579F466
:103AC00060E062960FB6F894DEBF0FBECDBFDF9107
:103AD000CF911F910F91FF90EF900C940B116F3FBE
:103AE000710511F461E0EDCF8B01F82E682FCE0146
:103AF000019612DF8989882309F477C0E981FA8168
:103B00009F858889911134C0608190E023E030E086
:103B1000A901481B590B440F551F042E01C0220F49
:103B20000A94EAF72095262362E070E001C0660F50
:103B30004A95EAF7262B2083FC013396EE0FFF1FF0
:103B400021E030E02C0F3D1FE20FF31F0190F081C8
:103B5000E02D1183008362960FB6F894DEBF0FBE8E
:103B6000CDBFDF91CF911F910F91FF90EF900895FE
:103B70002A892111F0CFAFEFB0E0923029F0AD8566
:103B8000BE850D90BC91A02D608190E023E030E0D7
:103B9000A901481B590B440F551F042E01C0220FC9
:103BA0000A94EAF72095262362E070E001C0660FD0
:103BB0004A95EAF7262B20830396880F991FE1E0A8
:103BC000F0E0EC0FFD1F8E0F9F1FFC01E080F180E5
:103BD00098010E9455A12FEF30E040E050E00E9494
:103BE0000DA1F70131832083B6CF61E00F371105B6
:103BF00008F460E08F2D65CFCF93DF93EC016881EF
:103C000070E085E04CDF698170E084E048DF6A8124
:103C100070E086E044DF88819981482F490F55275D
:103C2000551F8A81840F952F911D21E083309105C6
:103C30000CF420E02093C50403974CF0888199810F
:103C4000AA818093C70E9093C80EA093C90EDF91EE
:103C5000CF9108958F929F92AF92BF92CF92DF92B1
:103C6000EF92FF92CF93DF9300D0CDB7DEB72FEF67
:103C70008417950731F16A01052E000CEE08FF0844
:103C80004C01092E000CAA08BB08681779072CF014
:103C9000CB01461757070CF4CA019C01990F440B3E
:103CA000550B281939094A095B09AFEFB0E00E94AA
:103CB0004BA1A7019601281939094A095B090E94FD
:103CC0002FA18091A603821751F02093A6038FEFB6
:103CD00089831A8220952B83CE0101968DDF0F9068
:103CE0000F900F90DF91CF91FF90EF90DF90CF90EA
:103CF000BF90AF909F908F9008958F929F92AF92B8
:103D0000BF92CF92DF92EF92FF92CF93DF9300D0DA
:103D1000CDB7DEB72FEF8417950731F16A01052E75
:103D2000000CEE08FF084C01092E000CAA08BB0885
:103D3000681779072CF0CB01461757070CF4CA0116
:103D40009C01990F440B550B281939094A095B0945
:103D5000AFEFB0E00E944BA1A701960128193909E5
:103D60004A095B090E942FA18091A603821749F09E
:103D70002093A60329831A828FEF8B83CE010196AD
:103D80003BDF0F900F900F90DF91CF91FF90EF905E
:103D9000DF90CF90BF90AF909F908F900895009745
:103DA00019F0019789F008951092900082E08093B5
:103DB00091001092950010929400C19A8091710028
:103DC00082608093710008951092A00082E0809339
:103DD000A1001092A5001092A40089BB80937200EC
:103DE0000895AF92BF92CF92DF92EF92FF920F931E
:103DF0001F93CF935C016B018A01845D9C4F7C0112
:103E0000DC01CC91C7FF3DC0FB0111821082CF5F66
:103E1000D701CC93CC300CF053C08CE08A9DF001DC
:103E20008B9DF00D1124CF018C0F911DC7FD9A952C
:103E300020919B0E2817190609F00CF441C0F601D9
:103E400020813181FC01EE0FFF1FE80FF91FED5AB1
:103E5000F14F81819281820F931FD80111969C931B
:103E60008E93808187FF3DC061E08F77CF911F9156
:103E70000F91FF90EF90DF90CF90BF90AF900C9498
:103E80000B118CE08A9DF0018B9DF00D1124CF0168
:103E90008C0F911DC7FD9A9520919B0E281719062E
:103EA00009F00CF4B4CFFC01EE0FFF1FE80FF91F6F
:103EB000ED5AF14F808160E08F770E940B11A7CF00
:103EC000F6018081918104968034FCE99F0710F40B
:103ED00080E49CE9D80111969C938E938FEFF701B3
:103EE0008083CF911F910F91FF90EF90DF90CF9043
:103EF000BF90AF9008959091C00095FFFCCF809344
:103F0000C60008958F929F92AF92BF92EF92FF9258
:103F10001F93CF93DF93CDB7DEB7A0970FB6F8947A
:103F2000DEBF0FBECDBF611571058105910589F119
:103F300020E04AE0842E912CA12CB12C11E0120F2C
:103F4000EE24E394F12CEC0EFD1EE20EF11C27FD95
:103F5000FA94A50194010E940DA1F7016083B901B3
:103F6000CA01212F611571058105910539F711509D
:103F700008F1E1E0F0E0EC0FFD1FE10FF11D17FD8E
:103F8000FA95908187E39A3008F480E3890FB3DFD4
:103F9000EECF80E3A0960FB6F894DEBF0FBECDBF84
:103FA000DF91CF911F91FF90EF90BF90AF909F90C6
:103FB0008F90A1CFA0960FB6F894DEBF0FBECDBFF5
:103FC000DF91CF911F91FF90EF90BF90AF909F90A6
:103FD0008F900895682F70E090E080E093CFCF92AB
:103FE000DF92EF92FF926B017C01F7FE0AC0F09422
:103FF000E094D094C094C11CD11CE11CF11C8DE252
:104000007ADFC701B601FF90EF90DF90CF907ACFB3
:10401000E6CF8F929F92AF92BF92CF92DF92EF92B4
:10402000FF92CF936B017C01B42E20E030E0A90118
:104030000E94339D87FF06C08DE25DDFF7FAF094A2
:10404000F7F8F094C0E060E070E080E09FE3CB150B
:1040500041F02DEC3CEC4CEC5DE30E94989DCF5F71
:10406000F6CFA70196010E949FA16B017C010E94DF
:10407000E8A24B015C0146DFCC2361F1C501B4012C
:104080000E94379D9B01AC01C701B6010E949EA111
:104090006B017C018EE22FDFC150E0F020E030E0C8
:1040A00040E251E4C701B6010E94989D6B017C017A
:1040B0000E94E8A24B015C0125DFC501B4010E940A
:1040C000379D9B01AC01C701B6010E949EA16B0107
:1040D0007C01E2CFCF91FF90EF90DF90CF90BF9027
:1040E000AF909F908F900895CF93DF93EC018991CB
:1040F000882311F000DFFBCFDF91CF910895F4DF2B
:104100008DE0F9DE8AE0F7CECF93DF93EC01FE017C
:1041100084912196882311F0EEDEF9CFDF91CF91C3
:104120000895CF92DF92EF92FF92E0EFFCE0808162
:104130008183C090720DD090730DE090740DF0905B
:10414000750D8FEFC81AD80AE80AF80A83E29FE1D2
:10415000DBDFC701B6015CDF8AE0CDDE8FE19FE1E6
:10416000FF90EF90DF90CF90CFCFCF93DF93EB0115
:10417000CBDFBE0190E080E0DF91CF91C3CEEF9224
:10418000FF920F931F93CF937B018A01C2E48F3F6D
:1041900009F0C4E580E2AFDE8C2FADDE8AE3ABDE52
:1041A000F701608171818281938142E032DF80EA90
:1041B00093E1AADFF801608171818281938142E0FD
:1041C00028DF62E070E080E090E0CF911F910F91D6
:1041D000FF90EF900C94BC11CF92DF92EF92FF9280
:1041E000CF93DF93EC01C880D980EA80FB808BEE0F
:1041F00092E18ADFC701B6010BDFCC80DD80EE8063
:10420000FF8084E39FE180DFC701B60101DFC8843E
:10421000D984EA84FB8480E39FE176DFC701B6019D
:10422000F7DE8AE0DF91CF91FF90EF90DF90CF90A3
:1042300062CE0F931F93CF938C01C62F86EE9AE028
:1042400063DFC80161DF8AE356DE80E38C0F53DE53
:104250008AE0CF911F910F914ECEAF92BF92CF9235
:10426000DF92EF92FF920F931F93CF93DF93EC01B6
:1042700084E393E049DF209711F4C1E0D4E010E03B
:1042800007E0015019F080E236DEFBCF812FA2DE7D
:104290001F5F1530A9F78AE02EDE10E080E22BDEEA
:1042A000812F98DE5E0105E080E225DEF501C08009
:1042B000D180E280F380A7019601C701B6010E9478
:1042C0004BA4882321F180E216DE8DE314DE8DE31A
:1042D00012DE8DE310DE8DE30EDE8DE30CDE015089
:1042E000F4E1AF0EB11C0111DFCF8AE004DE1F5FE5
:1042F0002496153099F68AE0DF91CF911F910F91A6
:10430000FF90EF90DF90CF90BF90AF90F4CD20E082
:1043100030E0A901C701B6010E94C5A387FD02C014
:104320008BE2E9DD43E0C701B60173DED8CF81112E
:1043300005C08DE293E0E8DE8AE0DDCD81E393E025
:10434000FACF86E293E0E0CE80E293E0DDCECF9339
:10435000DF93FADFC0912907D0912A078CEE9EE106
:10436000D3DECE01C1DE89EE9EE1DF91CF91CCCECE
:104370000F931F93CF93811111C0C42F8B01E4DFE2
:1043800083E799E0C1DEC801BFDECC2339F08AE3C0
:10439000B2DD8AE0CF911F910F91ADCDCF911F91EA
:1043A0000F910895CF93C82F41E0E2DFC11102C001
:1043B000CF91CACFCF910895CF92DF92EF92FF9223
:1043C0006A017B01A1DE42E0C701B601FF90EF90D8
:1043D000DF90CF901ECE4F925F926F927F928F921E
:1043E0009F92AF92BF92CF92DF92EF92FF920F9384
:1043F0001F93CF93DF93C2E5D2E04C845D846E843B
:104400007F8409ED1DE0F8012481358146815781C3
:104410006C817D818E819F810E949FA14B015C01F7
:10442000F8012085318542855385688579858A859F
:104430009B850E949FA16B017C01F8012081318145
:1044400042815381688179818A819B810E949FA1E9
:10445000AB01BC0188E39FE1AFDFB501A40184E3B8
:104460009FE1AADFB701A60180E39FE1A5DFB301C9
:10447000A2018CE29FE1DF91CF911F910F91FF90FC
:10448000EF90DF90CF90BF90AF909F908F907F90F4
:104490006F905F904F9090CFCF93DF93CDB7DEB703
:1044A0002C970FB6F894DEBF0FBECDBF94DF0E94ED
:1044B00076179CE0E5EBF4E0DE01119601900D9299
:1044C0009A95E1F781110E948317CE01019684DE4F
:1044D0002C960FB6F894DEBF0FBECDBFDF91CF9103
:1044E0000895CF93DF9360E17FE15CDFCBE2D7E01B
:1044F0004C895D896E897F8988E09FE15DDF488D09
:10450000598D6A8D7B8D85E09FE156DF4C8D5D8DE9
:104510006E8D7F8D82E09FE14FDF48A159A16AA196
:104520007BA18FEF9EE148DF8AE0DF91CF91E3CC62
:10453000CF93C82F41E061E775E01ADFC11101C0D8
:1045400003DF4091470E5091480E6091490E7091E3
:104550004A0E88E695E030DF21E732EB47E25EE382
:1045600060914B0E70914C0E80914D0E90914E0EBD
:104570000E947BA2AB01BC0185E695E01DDF21E72F
:1045800032EB47E25EE360914F0E7091500E8091E6
:10459000510E9091520E0E94989DAB01BC0182E693
:1045A00095E00ADF8AE0CF91A6CC06DF8AE0A3CCB3
:1045B000CF93DF936AED7AE0F5DECCEFD4E048816B
:1045C00059816A817B8181ED9AE0F6DE4C815D81C3
:1045D0006E817F8185E09FE1EFDE488559856A85A0
:1045E0007B8582E09FE1DF91CF91DFCFCF93DF9397
:1045F0006BE875E0D7DECBEFDDE048A159A16AA1F9
:104600007BA182E895E0D8DE21E732EB47E25EE36A
:104610006CA17DA18EA19FA10E947BA2AB01BC01D8
:104620008FE795E0C9DE21E732EB47E25EE368A55C
:1046300079A58AA59BA50E94989DAB01BC018CE73A
:1046400095E0DF91CF91B1CFCF9381110EC040E0C3
:104650006DE474E08DDE80910004811103C080E47C
:1046600094E052DD8AE047DC6FDEC091000487E30E
:1046700094E04ADD6C2F70E090E080E0B0DC409187
:10468000FC035091FD036091FE037091FF0384E3EE
:1046900094E0CF918ACF6DE075E084DE60913B07B6
:1046A00070913C0780913D0790913E070E94379D95
:1046B000AB01BC0184E095E07FDE40916B07509137
:1046C0006C0760916D0770916E0781E095E074DE74
:1046D00040916F0750917007609171077091720758
:1046E0008EEF94E069DE4091EC065091ED0660910A
:1046F000EE067091EF068BEF94E057CFCF93DF93E8
:1047000061EB74E04FDECBE2D7E04CA95DA96EA966
:104710007FA988EA94E050DE48AD59AD6AAD7BAD23
:1047200085EA94E049DE4CAD5DAD6EAD7FAD8EEFB8
:1047300094E0DF91CF9139CFCF93DF936DE874E0B0
:1047400031DECBE2D7E04CA15DA16EA17FA184E870
:1047500094E032DE48A559A56AA57BA585E09FE1D6
:104760002BDE4CA55DA56EA57FA582E09FE124DE32
:1047700048A959A96AA97BA98FEF9EE11DDE8AE0AD
:10478000DF91CF91B8CBCF93DF9368E674E00ADE78
:10479000CBE2D7E0688179818A819B810E94379D35
:1047A000AB01BC018FE594E007DE6C817D818E81D9
:1047B0009F810E94379DAB01BC0185E09FE1FCDD3C
:1047C000688579858A859B850E94379DAB01BC01F0
:1047D00082E09FE1F1DD6C857D858E859F850E945D
:1047E000379DAB01BC018FEF9EE1E6DD8AE0DF91F2
:1047F000CF9181CBCF93DF93EB0186DCBE01DD0F40
:10480000880B990BDF91CF91EACB1F93CF93DF9366
:1048100000D000D01F921F92CDB7DEB7182F609145
:104820002F0E7091300E072E000C880B990B0E94F2
:10483000399D6D837E838F83988780912B0E909115
:104840002C0EA0912D0EB0912E0E89839A83AB83EE
:10485000BC83AE014B5F5F4FBE016F5F7F4F80E84F
:104860008EDC6091030E7091040E072E000C880BF5
:10487000990B0E94399D6D837E838F8398878091E9
:10488000FF0D9091000EA091010EB091020E898350
:104890009A83AB83BC83AE014B5F5F4FBE016F5FFA
:1048A0007F4F8FEF6CDC6091050E1F3F39F08CE27B
:1048B0001802F0011124E95DF14F628570E088EA89
:1048C00093E198DF6091050E70E083EA93E192DF57
:1048D00028960FB6F894DEBF0FBECDBFDF91CF9103
:1048E0001F91089511DC8AE006CBEC01162F0E947F
:1048F000AC1A209719F028DDCE01F4DF22DD85E126
:1049000090E202DC89EE93E0019739F000C00000EC
:10491000EEE5F9E03197F0F7F7CFF89489EE93E000
:10492000019739F000C00000E6EEF3E03197F0F7B0
:10493000F7CF0E94AC1A112321F00E943B15A895D5
:10494000FECF0E94FF14FBCFEF92FF920F931F93B5
:10495000CF93C82F7B018A018091FB04833068F0DC
:10496000F0DCC701D1DB8CEF92E1CEDBCF3FB9F4B5
:1049700088EF92E1C9DB8AE0BEDA0E94AC1AA89502
:104980008091C604811119C081E08093C60482E041
:104990008093FB040E94AC1A60E0C801A6DFC7FD4B
:1049A000EACF86EF92E1B0DB6C2FCC0F770B880B50
:1049B000990B15DB8AE09FDADECFCF911F910F9123
:1049C000FF90EF9008953F924F925F926F927F9287
:1049D0008F929F92AF92BF92CF92DF92EF92FF920F
:1049E0000F931F93CF93DF93EC015B014A01322EAB
:1049F000FA014080518062807380A30192016D8131
:104A00007E818F8198850E94339D8823A1F04D82FD
:104A10005E826F8278867724739420E030E0A9016B
:104A2000F40160817181828193810E94C5A318166F
:104A30000CF0712C7C828C818230A1F0833009F4DF
:104A400055C08130A9F52D813E814F815885F501F2
:104A500060817181828193810E94339D87FD28C08E
:104A600082E08C83F50120813181428153816D8107
:104A70007E818F8198850E949EA12B013C010E941E
:104A8000ED114B015C01A7019601C301B2010E9427
:104A9000339D1816FCF09801A8EEB3E00E9455A1D2
:104AA000860E971EA81EB91E88829982AA82BB8292
:104AB000DF91CF911F910F91FF90EF90DF90CF90FA
:104AC000BF90AF909F908F907F906F905F904F902E
:104AD0003F90089588819981AA81BB81881A990A9B
:104AE000AA0ABB0AB7FCE4CF83E08C8340E853E119
:104AF00060E973E1832DDF91CF911F910F91FF90BA
:104B0000EF90DF90CF90BF90AF909F908F907F906D
:104B10006F905F904F903F9017CF4AE153E16AE268
:104B200073E112CF8091DF06882319F01092DF061F
:104B3000089560E086E99CE0D8DECF93C82FCB01D2
:104B4000E3DA89EB9CE0E0DA8AEA9CE0CC2311F01E
:104B50008FEA9CE0CF91C6CECF93DF9367EF7AE0E8
:104B600021DCC091AB0ED091AC0E488159816A8195
:104B70007B818EEE9AE020DC4C815D816E817F81AD
:104B800085E09FE119DC4091A70E5091A80E60913D
:104B9000A90E7091AA0E82E09FE10EDC8BEE9AE0E6
:104BA000B3DA83E791E1DF91CF919CCECF92DF9290
:104BB000EF92FF921F93CF93DF93C82F41E065EEF2
:104BC00071E1D6DBC11101C0BFDB8DED91E19CDA53
:104BD00083E791E187DE41E06BEC71E18C2FC8DB6C
:104BE000C11101C0B1DB8EEA91E18EDA8C2F2CDD90
:104BF0008C2F77DC8C2FA0DD8C2FC5DD8C2F7EDDFC
:104C00008C2F49DD8C2FD4DC6FE871E18C2FCADB4F
:104C1000D0917B0786E891E177DA6D2F70E090E024
:104C200080E0DDD940917C0750917D0760917E073F
:104C300070917F0782E09FE1BFDB89E791E164DA51
:104C40008D2F75DB20E030E0A9016091F4037091B5
:104C5000F5038091F6039091F7030E94339D88231A
:104C600061F181E0E82E84E0F82ED0E0670110E0E9
:104C7000C11101C069DB84EA91E146DA812FAAD92A
:104C800081EA91E141DA8D2FA5D982E09FE13CDAFA
:104C9000F601608171818281938145E0BAD98AE011
:104CA0002AD91F5FF4E1CF0ED11C153009F7DF5F61
:104CB00084E0E80EF11CD530C9F68C2F39DC8C2F3E
:104CC00095DC8C2FDF91CF911F91FF90EF90DF90BB
:104CD000CF9042CF8091F00C9091F10C2FEF3FEFED
:104CE000981751F0E92FF0E0E051F34F228130E0C6
:104CF0009F5F9F779093F10CC9010895CF92DF9247
:104D0000EF92FF920F931F93CF938C01C62F19DB65
:104D1000C090720DD090730DE090740DF090750DF1
:104D2000C801F2D9C701B60173D98AE0E4D8D2DF4D
:104D30000196E9F78C2FF5D91092770D1092760D28
:104D4000CF911F910F91FF90EF90DF90CF9008953A
:104D50008F929F92AF92BF92CF92DF92EF92FF928B
:104D60000F931F93CF93DF93B4E4A0E06A2F70E01A
:104D7000AB014B0F511D55954795411119C0EEEAF6
:104D8000F3E165917491072E000C880B990B0E943A
:104D9000399DDF91CF911F910F91FF90EF90DF90A0
:104DA000CF90BF90AF909F908F900895B42FE0CF99
:104DB0004A1711F0B41303C0EAEBF4E1E2CF9A0111
:104DC00021503109220F331F220F331FF901E455FF
:104DD000FC4EE590F490F901E055FC4EC591D4915C
:104DE0008E159F0518F3A42FC817D90708F4BECF56
:104DF000F901E255FC4E05911491F901EE54FC4E77
:104E0000C590D4908E199F09BC0190E080E00E946B
:104E1000379D4B015C01B601601B710B072E000C26
:104E2000880B990B0E94399D9B01AC01C501B4010F
:104E30000E94989D4B015C01CE19DF09BE0190E0F4
:104E400080E00E94379D9B01AC01C501B4010E9426
:104E50007BA26B017C01B801110F880B990B0E949A
:104E6000399D9B01AC01C701B6010E949FA191CF62
:104E7000CF93DF93A8958091290E90912A0E68DF39
:104E800060932B0E70932C0E80932D0E90932E0E0C
:104E90008091FD0D9091FE0D0E947C136093FF0D9B
:104EA0007093000E8093010E9093020EC091290E14
:104EB000D0912A0E8091440290914502C817D907DB
:104EC00010F480E02ADE80912F0E9091300E18169B
:104ED00019066CF480914202909143028C179D0751
:104EE00030F44FE553E16EE673E180E02DDD209173
:104EF000F5043091F6048091FD0D9091FE0D82171E
:104F0000930710F48FEF09DE8091030E9091040E49
:104F1000181619069CF420914002309141028091AC
:104F2000FD0D9091FE0D2817390740F44FE553E130
:104F30006EE673E18FEFDF91CF9106CDDF91CF91D8
:104F400008954F925F926F927F928F929F92AF924D
:104F5000BF92CF92DF92EF92FF920F931F93CF9366
:104F6000DF9300D01F92CDB7DEB78091FB04811193
:104F700016C0A8950F900F900F900F90DF91CF91D2
:104F80001F910F91FF90EF90DF90CF90BF90AF9067
:104F90009F908F907F906F905F904F900895809139
:104FA000E5048111E7CF81E08093E5048091E70477
:104FB000811103C01092E504DDCF5ADF1092E7049F
:104FC0000E94ED114B015C01609148027091490211
:104FD000072E000C880B990B0E94399D2B013C0178
:104FE000AC019B0160912B0E70912C0E80912D0EC7
:104FF00090912E0E0E94C5A3181614F480E08DDD4A
:1050000060912F0E7091300E072E000C880B990BBB
:105010000E94399D69837A838B839C83C12CD12C18
:1050200030E8E32E30E4F32E08E210E020E0AE0199
:105030004F5F5F4F6BE27EE089EE9DE0C4DCC09085
:105040002B0ED0902C0EE0902D0EF0902E0E609135
:10505000460270914702072E000C880B990B0E94A4
:10506000399D9B01AC01C701B6010E94C5A318166A
:105070000CF0F6C0A7019601C301B2010E94C5A3BE
:1050800018160CF0EDC08091DD04811109C087E293
:105090009EE09093DC048093DB0481E08093DD0448
:1050A0008BED94E00E94F9110E94E3A2759567953B
:1050B0006093310E8091F0049091F104A091F2047C
:1050C000B091F3040097A105B105F1F0A501940199
:1050D000281B390B4A0B5B0BDA01C901B7FD14C061
:1050E00060912B0E70912C0E80912D0E90912E0EB2
:1050F0000E94E3A22091EE043091EF04621773073F
:105100000CF4B0C00E9447138091D7049091D8044A
:10511000A091D904B091DA04A5019401281B390BA0
:105120004A0B5B0BDA01C901B7FD10C0D501C40100
:105130008C53964FAF4FBF4F8093D7049093D804B2
:10514000A093D904B093DA040E940C1420E030E05C
:1051500046E153E46091FF0D7091000E8091010EC5
:105160009091020E0E94C5A3181614F48FEFD5DC9F
:105170008091D3049091D404A091D504B091D60429
:105180000097A105B105D1F0881A990AAA0ABB0AAD
:10519000B7FC14C06091FF0D7091000E8091010E5C
:1051A0009091020E0E94E3A22091D1043091D2048A
:1051B000621773070CF45DC00E94761A6091030EAB
:1051C0007091040E072E000C880B990B0E94399DDC
:1051D00069837A838B839C83C12CD12CE12C90E44E
:1051E000F92E04E110E02FEFAE014F5F5F4F6FEF3C
:1051F0007DE082EF9DE0E7DBC090FF0DD090000ED8
:10520000E090010EF090020E20E030E040EA50E421
:10521000C701B6010E94C5A387FD32C020E030E07F
:1052200046E153E4C701B6010E94339D181644F1CC
:105230008091C904811109C08BEF9DE09093C8044F
:105240008093C70481E08093C90487EC94E00E94B6
:10525000F9110E94E3A2759567956093050EAACE99
:1052600060E026CF4CE353E160E573E180E06CDB66
:105270004BCF4CE353E160E573E18FEF65DB9ECFED
:1052800060E0EBCFCF92DF92EF92FF926B017C0157
:1052900083E3C816D104E104F10468F082E3C81A7C
:1052A000D108E108F10862E370E080E090E00E943C
:1052B000BC1147DEEDCFC701B6010E94BC11FF90C3
:1052C000EF90DF90CF903DCE3CD888EE90E10E94E9
:1052D000842080EE90E10E94842084EC90E10E9482
:1052E00084200E94AC1A0E944D1A8091FB048130E8
:1052F00069F027D88DE490E10E9484206EE571E08A
:1053000080E090E0BFDF81E08093FB04089580910E
:10531000F804811104C08091EB06882329F062E033
:1053200070E080E090E0AECF08957F928F929F92E0
:10533000AF92BF92CF92DF92EF92FF920F931F93A3
:10534000CF93DF936C01EB01FC018081883108F081
:10535000C4C090E0FC01EE0FFF1FE80FF91FED5AEB
:10536000F14F80818F770E947710F60111821282AF
:1053700080812CE0622F0E9464A1829FB0011124E1
:1053800030E020E0AB01420F531FFA01EE0FFF1F88
:10539000E40FF51FED5AF14F908197FD08C02F5F84
:1053A0003F4F2C30310571F790E00E94CF1EF6017F
:1053B0007080E72CF12C8701000F111FF801EE0D12
:1053C000FF1DED5AF14F80818068808377FC85C096
:1053D000C032F2E0DF070CF040C0F601828128E520
:1053E00032E0281B310987FD3395220F331F220F2E
:1053F000331F032E000C440B550B818178E8872E58
:10540000912C881A910887FD9394880C991C880C1C
:10541000991C092C000CAA08BB0860E070E0CB01C5
:10542000D7FD0AC0BE01C53BD10514F064EB70E0A6
:10543000072E000C880B990B281939094A095B09BA
:105440000E94FEA024EB30E040E050E00E942FA13B
:10545000820E931EA41EB51EE401F7E1F71558F164
:10546000F6012281318188E890E0831B910937FDA4
:105470009395880F991F880F991FC817D90774F043
:1054800088E592E0821B910927FD9395880F991F6B
:10549000880F991FC817D9070CF4CE012FB7F894BD
:1054A0000E0D1F1DF801ED5AF14F0297880F991F3D
:1054B000928381832FBF62E370E080E090E0DF9110
:1054C000CF911F910F91FF90EF90DF90CF90BF9001
:1054D000AF909F908F907F90D5CEDF91CF911F910D
:1054E0000F91FF90EF90DF90CF90BF90AF909F9083
:1054F0008F907F9008950F931F93CF93C82F8B01A8
:105500008CE99EE00E94131CC817A9F06C2F70E074
:105510008CE99EE00ADFF8016081718182819381CC
:10552000643FF1E07F078105910520F464EF71E0AD
:1055300080E090E0A7DE89B182FB882780F9CF91D7
:105540001F910F910895CF93DF9300D01F92CDB795
:10555000DEB78EEE92E0A0E0B0E089839A83AB8361
:10556000BC83BE016F5F7F4F8AE5C5DF0F900F9050
:105570000F900F90DF91CF910895CF93DF9300D0DC
:105580001F92CDB7DEB78EEE92E0A0E0B0E0898347
:105590009A83AB83BC83BE016F5F7F4F8AE0ABDF32
:1055A0000F900F900F900F90DF91CF9108951F9360
:1055B000CF93DF9300D01F92CDB7DEB784EF91E099
:1055C000A0E0B0E089839A83AB83BC83BE016F5FA8
:1055D0007F4F8CE390DF86ED9CE00E9484208CB1AD
:1055E00011E085FB882780F960ED7CE08127A5DA52
:1055F00080910301869581706AEC7CE081279DDAB9
:1056000089B183FB882780F964EC7CE0812795DAF7
:1056100089B16CEB7CE082FB882780F98EDA4A99AD
:1056200009C0ABDF0F900F900F900F90DF91CF91DB
:105630001F91089588DF0F900F900F900F90DF91CA
:10564000CF911F910895CF93DF9300D01F92CDB7D4
:10565000DEB784EF91E0A0E0B0E089839A83AB836A
:10566000BC83BE016F5F7F4F80EA45DF0F900F90D4
:105670000F900F90DF91CF910895CF92DF92EF922C
:10568000FF921F93CF93DF9300D01F92CDB7DEB769
:105690008EEEC82E82E0D82EE12CF12CC982DA825F
:1056A000EB82FC82BE016F5F7F4F8AE524DF8111B0
:1056B0000EC010E0812F0F900F900F900F90DF9190
:1056C000CF911F91FF90EF90DF90CF900895BBDFB7
:1056D000C982DA82EB82FC82BE016F5F7F4F8AE56E
:1056E0000ADF182F882329F3EFDDE4CFCF92DF9272
:1056F000EF92FF921F93CF93DF9300D01F92CDB70D
:10570000DEB78EEEC82E82E0D82EE12CF12CC982B5
:10571000DA82EB82FC82BE016F5F7F4F8AE0EBDEB4
:1057200081110EC010E0812F0F900F900F900F90FD
:10573000DF91CF911F91FF90EF90DF90CF90089570
:1057400082DF01DF1ADFFFDEC982DA82EB82FC82B0
:10575000BE016F5F7F4F8AE0CEDE182F882311F3E2
:10576000B3DDE1CF4F925F926F927F928F929F92C3
:10577000AF92BF92CF92DF92EF92FF92CF93DF93DF
:1057800000D000D01F921F92CDB7DEB75C01DB01C5
:10579000CD90DD90ED90FC90E091AB0EF091AC0ED1
:1057A000FE83ED8384819581A681B78189839A8365
:1057B000AB83BC839C01AD01C701B6010E949EA1D1
:1057C0002B013C01F50180809180A280B380AD81E6
:1057D000BE818D919D910D90BC91A02D8D839E8356
:1057E000AF83B88722ED30E040EA50ECC301B2014C
:1057F0000E94C5A387FDD3C027E030E046E653E40E
:10580000C301B2010E94339D18160CF4C8C02D814B
:105810003E814F815885C501B4010E949EA12B0194
:105820003C0123EA31E040E050EC0E94C5A387FD33
:10583000B6C027E030E04CE553E4C301B2010E945A
:10584000339D18160CF4ABC020E030E040E050E48B
:105850006D817E818F8198850E949EA12B013C01E4
:1058600020E030E040E251E40E94339D87FF06C013
:10587000412C512C30E2632E31E4732E27E137EBBB
:1058800041ED58E3C301B2010E949EA19B01AC010E
:10589000C501B4010E94C5A387FD81C020E030E0AE
:1058A0004CE553E46D817E818F8198850E949FA194
:1058B0002B013C0120E030E042E553E40E94C5A307
:1058C000181634F4412C512C22E5622E23E4722E5A
:1058D00027E137EB41ED58E3C301B2010E949FA1DC
:1058E0009B01AC01C501B4010E94339D18160CF454
:1058F00056C020E030E040EA50E469817A818B8133
:105900009C810E949EA14B015C0120E030E040E2BE
:1059100051E40E94339D87FF06C0812C912C90E2B8
:10592000A92E91E4B92E27E137EB41ED58E3C501EB
:10593000B4010E949EA19B01AC01C701B6010E9467
:10594000C5A387FD2CC020E030E046E653E4698122
:105950007A818B819C810E949FA14B015C0120E098
:1059600030E04CE553E40E94C5A3181634F4812CB2
:10597000912C8CE5A82E83E4B82E27E137EB41ED7E
:1059800058E3C501B4010E949FA19B01AC01B1E0A5
:10599000B983C701B6010E94339D18160CF4198211
:1059A000898128960FB6F894DEBF0FBECDBFDF9178
:1059B000CF91FF90EF90DF90CF90BF90AF909F90EE
:1059C0008F907F906F905F904F900895DF92EF924D
:1059D000FF920F931F93CF93DF931F92CDB7DEB744
:1059E0008C01D42E7C01E60EF71E8091E50D90917E
:1059F000E60D0E94E8A08983DD2011F0F801808384
:105A0000CE0101960E945E108091E50D9091E60D09
:105A100001969093E60D8093E50D0F5F1F4F0E15D5
:105A20001F0519F780E00F90DF91CF911F910F9123
:105A3000FF90EF90DF9008954091690421E04227A4
:105A400064E070E0C3CF4091690421E0422761E047
:105A500070E0BCCF4091690421E042276CE070E027
:105A6000B5CF4091690421E0422761E070E0AECFFC
:105A70004091690421E0422768E070E0A7CF40919F
:105A8000690421E042276CE070E0A0CF41E061E0D2
:105A900070E09CCF41E062E070E098CF40916904F3
:105AA00021E0422793CF9F92AF92BF92CF92DF9295
:105AB000EF92FF920F931F93CF93DF931F92CDB777
:105AC000DEB78C016C01C60ED71EF12CE12CC0167E
:105AD000D10609F44DC0A090E50DB090E60DF80197
